:100000006F00801A00000000680200001C0200005F
:1000100000000000000000000000000000000000E0
:1000200000000000000000000000000000000000D0
:100030001C020000000000001C0200000000000084
:100040001C0200001C0200001C0200001C02000038
:100050001C0200001C0200001C0200001C02000028
:100060001C0200001C0200001C0200001C02000018
:100070001C0200001C0200001C0200001C02000008
:100080001C0200001C0200001C0200001C020000F8
:100090001C0200001C0200002204000001000000FD
:1000A000634E050263C305042E86AA857D5515C2DD
:1000B00085466378B6006356C00006068606E36C84
:1000C000B6FE014563E4C500918D558D858205829C
:1000D000F5FA82808682C93F2E8582823305A04050
:1000E0006347B000B305B040C1B7B305B0408682E6
:1000F000653F3305A0408282868263C7050063495D
:1001000005005D372E858282B305B040E35B05FEB6
:100110003305A040513F3305B04082820000B7074D
:1001200000E09387470F9843137707086DFF372741
:10013000307813078708B70600E098C39386460F08
:100140007147A54571569C4293F70708EDFF33535D
:10015000E5001373F300B3B76500B307F04093F7FE
:100160007702938707039A97A20793E757089CC2E1
:100170007117E31AC7FC8280B74701409387078055
:100180009843137707086DDFC8C38280611122C0CE
:1001900006C22A840345040009E592400244210175
:1001A00082800504D13FFDB797010020938141254E
:1001B00017010020130101650965130505887310F7
:1001C00005308D46170500001305C5E3558D7310E6
:1001D0005530138541C0970500209385E5E201461F
:1001E0006356B50010C11105E34EB5FE1305004975
:1001F000938541C0138641C06388C500144194C1F2
:1002000011059105E39AC5FEB7F700E0154798C3BD
:100210009307A02C7390173473002030732510348B
:10022000FD3D73250030E53D73253034CD3D73250C
:100230002034F535B70700E09387470F98431377CD
:1002400007086DFF0567130757A898C3B70700E0B5
:100250009387470F9843137707086DFF37B7AAAA0C
:10026000130737A898C301A0371702401C47B706E9
:100270008000D58F1CC7B7270240054798C3B71722
:1002800002403707080123A207001307170898C385
:1002900037079F0098C7984393166700E3DD06FE73
:1002A000D843B7160240719B13672700D8C3214774
:1002B000DC42B18BE39EE7FEB70700E023AC070EFC
:1002C0001307000823AAE70E8280011106CE22CC74
:1002D00026CA5537371702401C4F370600F17D16E6
:1002E00093E707021CCFB717014093870740944359
:1002F0001305C045F18E94C3944337060003D18E95
:1003000094C3144F116613060602D18E14CF944382
:10031000370610FF7D16F18E94C394433706B00064
:10032000D18E94C3B7470140938707809306101A74
:1003300094C7D44709662106D18ED4C75C4F930673
:10034000000493E717005CCFB70700401307F002E3
:100350002394E7021307703E2396E70203D7470171
:1003600013671700239AE7002398070003D7C700F5
:10037000136717002396E70037E700E02322D71022
:1003800003D70700136717002390E7000135B7175D
:10039000014093870740D84793060004137707046A
:1003A0001DCBD4CB13050048D53303A541C093071B
:1003B000703E63E4A702130500037D3B1305C048AC
:1003C000F13383A641C01307703E83A741C0958FC8
:1003D000E37DF7FE6DBF94CBF1B79305803EE93125
:1003E000AA87340081443E85A9453EC036C2DD312E
:1003F000924613050503A9452380A60002458504FE
:100400006531924602432546AA878506E36D66FC60
:10041000FD14938784008A9703C50700B13BEDF86C
:1004200071BF51113EC0B70700403AC203D7070160
:1004300036C4058B09CF03A741C0050723A2E1C03D
:1004400003D70701C166F916758F2398E700A24606
:100450001247824731017300203000005653445345
:1004600071756164726F6E204D696E69207C2046E3
:1004700069726D776172652076312E300D0A000049
:10048000557074696D653A2000000000730D0A0014
:00000001FF
